{
  "_format": "hh-sol-artifact-1",
  "contractName": "QuestionVault",
  "sourceName": "src/QuestionVault.sol",
  "abi": [
    {
      "anonymous": false,
      "inputs": [
        {
          "indexed": true,
          "internalType": "bytes32",
          "name": "examId",
          "type": "bytes32"
        },
        {
          "indexed": false,
          "internalType": "string",
          "name": "action",
          "type": "string"
        },
        {
          "indexed": false,
          "internalType": "address",
          "name": "actor",
          "type": "address"
        },
        {
          "indexed": false,
          "internalType": "uint256",
          "name": "timestamp",
          "type": "uint256"
        }
      ],
      "name": "AuditLog",
      "type": "event"
    },
    {
      "anonymous": false,
      "inputs": [
        {
          "indexed": true,
          "internalType": "bytes32",
          "name": "examId",
          "type": "bytes32"
        },
        {
          "indexed": false,
          "internalType": "uint256",
          "name": "startTime",
          "type": "uint256"
        },
        {
          "indexed": false,
          "internalType": "address",
          "name": "creator",
          "type": "address"
        }
      ],
      "name": "ExamCreated",
      "type": "event"
    },
    {
      "anonymous": false,
      "inputs": [
        {
          "indexed": true,
          "internalType": "bytes32",
          "name": "examId",
          "type": "bytes32"
        },
        {
          "indexed": false,
          "internalType": "uint256",
          "name": "releasedAt",
          "type": "uint256"
        }
      ],
      "name": "PaperReleased",
      "type": "event"
    },
    {
      "inputs": [
        {
          "internalType": "bytes32",
          "name": "examId",
          "type": "bytes32"
        },
        {
          "internalType": "bytes32",
          "name": "merkleRoot",
          "type": "bytes32"
        },
        {
          "internalType": "uint256",
          "name": "startTime",
          "type": "uint256"
        },
        {
          "internalType": "uint256",
          "name": "endTime",
          "type": "uint256"
        },
        {
          "internalType": "string[]",
          "name": "encryptedCIDs",
          "type": "string[]"
        }
      ],
      "name": "createExam",
      "outputs": [],
      "stateMutability": "nonpayable",
      "type": "function"
    },
    {
      "inputs": [
        {
          "internalType": "bytes32",
          "name": "",
          "type": "bytes32"
        }
      ],
      "name": "exams",
      "outputs": [
        {
          "internalType": "bytes32",
          "name": "merkleRoot",
          "type": "bytes32"
        },
        {
          "internalType": "uint256",
          "name": "examStartTime",
          "type": "uint256"
        },
        {
          "internalType": "uint256",
          "name": "examEndTime",
          "type": "uint256"
        },
        {
          "internalType": "address",
          "name": "creator",
          "type": "address"
        },
        {
          "internalType": "bool",
          "name": "exists",
          "type": "bool"
        },
        {
          "internalType": "bool",
          "name": "released",
          "type": "bool"
        }
      ],
      "stateMutability": "view",
      "type": "function"
    },
    {
      "inputs": [
        {
          "internalType": "bytes32",
          "name": "examId",
          "type": "bytes32"
        }
      ],
      "name": "getExam",
      "outputs": [
        {
          "components": [
            {
              "internalType": "bytes32",
              "name": "merkleRoot",
              "type": "bytes32"
            },
            {
              "internalType": "uint256",
              "name": "examStartTime",
              "type": "uint256"
            },
            {
              "internalType": "uint256",
              "name": "examEndTime",
              "type": "uint256"
            },
            {
              "internalType": "address",
              "name": "creator",
              "type": "address"
            },
            {
              "internalType": "bool",
              "name": "exists",
              "type": "bool"
            },
            {
              "internalType": "bool",
              "name": "released",
              "type": "bool"
            }
          ],
          "internalType": "struct QuestionVault.Exam",
          "name": "",
          "type": "tuple"
        }
      ],
      "stateMutability": "view",
      "type": "function"
    },
    {
      "inputs": [
        {
          "internalType": "bytes32",
          "name": "examId",
          "type": "bytes32"
        }
      ],
      "name": "getQuestionCount",
      "outputs": [
        {
          "internalType": "uint256",
          "name": "",
          "type": "uint256"
        }
      ],
      "stateMutability": "view",
      "type": "function"
    },
    {
      "inputs": [
        {
          "internalType": "bytes32",
          "name": "examId",
          "type": "bytes32"
        }
      ],
      "name": "isReleased",
      "outputs": [
        {
          "internalType": "bool",
          "name": "",
          "type": "bool"
        }
      ],
      "stateMutability": "view",
      "type": "function"
    },
    {
      "inputs": [
        {
          "internalType": "bytes32",
          "name": "examId",
          "type": "bytes32"
        },
        {
          "internalType": "string",
          "name": "action",
          "type": "string"
        }
      ],
      "name": "logAction",
      "outputs": [],
      "stateMutability": "nonpayable",
      "type": "function"
    },
    {
      "inputs": [
        {
          "internalType": "bytes32",
          "name": "",
          "type": "bytes32"
        },
        {
          "internalType": "uint256",
          "name": "",
          "type": "uint256"
        }
      ],
      "name": "questionCIDs",
      "outputs": [
        {
          "internalType": "string",
          "name": "",
          "type": "string"
        }
      ],
      "stateMutability": "view",
      "type": "function"
    },
    {
      "inputs": [
        {
          "internalType": "bytes32",
          "name": "examId",
          "type": "bytes32"
        }
      ],
      "name": "releasePaper",
      "outputs": [
        {
          "internalType": "bool",
          "name": "",
          "type": "bool"
        }
      ],
      "stateMutability": "nonpayable",
      "type": "function"
    },
    {
      "inputs": [
        {
          "internalType": "bytes32",
          "name": "examId",
          "type": "bytes32"
        },
        {
          "internalType": "bytes32",
          "name": "questionHash",
          "type": "bytes32"
        },
        {
          "internalType": "bytes32[]",
          "name": "proof",
          "type": "bytes32[]"
        }
      ],
      "name": "verifyQuestion",
      "outputs": [
        {
          "internalType": "bool",
          "name": "",
          "type": "bool"
        }
      ],
      "stateMutability": "view",
      "type": "function"
    }
  ],
  "bytecode": "0x608060405234801561001057600080fd5b50611a9a806100206000396000f3fe608060405234801561001057600080fd5b50600436106100935760003560e01c806383ef84481161006657806383ef84481461014457806399341a8a14610174578063b7f75d2c146101a9578063bfdd9aa7146101d9578063f3191ecd1461020957610093565b806303975393146100985780632948c4d1146100c8578063360535ed146100f8578063647b7c6314610128575b600080fd5b6100b260048036038101906100ad9190610bf5565b610225565b6040516100bf9190610c3d565b60405180910390f35b6100e260048036038101906100dd9190610c8e565b6103bf565b6040516100ef9190610d5e565b60405180910390f35b610112600480360381019061010d9190610bf5565b610478565b60405161011f9190610e69565b60405180910390f35b610142600480360381019061013d9190610ee9565b61054e565b005b61015e60048036038101906101599190610bf5565b610848565b60405161016b9190610c3d565b60405180910390f35b61018e60048036038101906101899190610bf5565b610874565b6040516101a096959493929190610fb0565b60405180910390f35b6101c360048036038101906101be9190610bf5565b6108ea565b6040516101d09190611011565b60405180910390f35b6101f360048036038101906101ee9190611082565b61090a565b6040516102009190610c3d565b60405180910390f35b610223600480360381019061021e919061114c565b6109d9565b005b60008060008084815260200190815260200160002090508060030160149054906101000a900460ff1661028d576040517f08c379a0000000000000000000000000000000000000000000000000000000008152600401610284906111f8565b60405180910390fd5b80600101544210156102d4576040517f08c379a00000000000000000000000000000000000000000000000000000000081526004016102cb90611264565b60405180910390fd5b8060030160159054906101000a900460ff1615610326576040517f08c379a000000000000000000000000000000000000000000000000000000000815260040161031d906112d0565b60405180910390fd5b60018160030160156101000a81548160ff021916908315150217905550827fc1942f0b06ebe9b60782caf24494c592d22742e1881963b6a2698a457ecaf95e426040516103739190611011565b60405180910390a2827f7ea6046f6bea2608970f2a18b35bda3541397e310440cdbbff9c5bb7b1719b4933426040516103ad92919061133c565b60405180910390a26001915050919050565b600160205281600052604060002081815481106103db57600080fd5b906000526020600020016000915091505080546103f7906113a7565b80601f0160208091040260200160405190810160405280929190818152602001828054610423906113a7565b80156104705780601f1061044557610100808354040283529160200191610470565b820191906000526020600020905b81548152906001019060200180831161045357829003601f168201915b505050505081565b610480610b62565b6000808381526020019081526020016000206040518060c00160405290816000820154815260200160018201548152602001600282015481526020016003820160009054906101000a900473ffffffffffffffffffffffffffffffffffffffff1673ffffffffffffffffffffffffffffffffffffffff1673ffffffffffffffffffffffffffffffffffffffff1681526020016003820160149054906101000a900460ff161515151581526020016003820160159054906101000a900460ff1615151515815250509050919050565b60008087815260200190815260200160002060030160149054906101000a900460ff16156105b1576040517f08c379a00000000000000000000000000000000000000000000000000000000081526004016105a890611424565b60405180910390fd5b4284116105f3576040517f08c379a00000000000000000000000000000000000000000000000000000000081526004016105ea90611490565b60405180910390fd5b838311610635576040517f08c379a000000000000000000000000000000000000000000000000000000000815260040161062c906114fc565b60405180910390fd5b6040518060c001604052808681526020018581526020018481526020013373ffffffffffffffffffffffffffffffffffffffff1681526020016001151581526020016000151581525060008088815260200190815260200160002060008201518160000155602082015181600101556040820151816002015560608201518160030160006101000a81548173ffffffffffffffffffffffffffffffffffffffff021916908373ffffffffffffffffffffffffffffffffffffffff16021790555060808201518160030160146101000a81548160ff02191690831515021790555060a08201518160030160156101000a81548160ff02191690831515021790555090505060005b828290508110156107cb576001600088815260200190815260200160002083838381811061076c5761076b61151c565b5b905060200281019061077e919061155a565b909180600181540180825580915050600190039060005260206000200160009091929091929091929091925091826107b79291906117a3565b5080806107c3906118a2565b91505061073b565b50857f9308d0bd8911bba8b003758bd2302df3131688819c3ef939e71fe355766b524585336040516107fe9291906118ea565b60405180910390a2857f7ea6046f6bea2608970f2a18b35bda3541397e310440cdbbff9c5bb7b1719b49334260405161083892919061195f565b60405180910390a2505050505050565b600080600083815260200190815260200160002060030160159054906101000a900460ff169050919050565b60006020528060005260406000206000915090508060000154908060010154908060020154908060030160009054906101000a900473ffffffffffffffffffffffffffffffffffffffff16908060030160149054906101000a900460ff16908060030160159054906101000a900460ff16905086565b600060016000838152602001908152602001600020805490509050919050565b600080600086815260200190815260200160002060030160149054906101000a900460ff1661096e576040517f08c379a0000000000000000000000000000000000000000000000000000000008152600401610965906111f8565b60405180910390fd5b6109cf838380806020026020016040519081016040528093929190818152602001838360200280828437600081840152601f19601f820116905080830192505050505050506000808881526020019081526020016000206000015486610a7e565b9050949350505050565b60008084815260200190815260200160002060030160149054906101000a900460ff16610a3b576040517f08c379a0000000000000000000000000000000000000000000000000000000008152600401610a32906111f8565b60405180910390fd5b827f7ea6046f6bea2608970f2a18b35bda3541397e310440cdbbff9c5bb7b1719b4983833342604051610a7194939291906119d7565b60405180910390a2505050565b60008082905060005b8551811015610b5457858181518110610aa357610aa261151c565b5b60200260200101518211610afb5781868281518110610ac557610ac461151c565b5b6020026020010151604051602001610ade929190611a38565b604051602081830303815290604052805190602001209150610b41565b858181518110610b0e57610b0d61151c565b5b602002602001015182604051602001610b28929190611a38565b6040516020818303038152906040528051906020012091505b8080610b4c906118a2565b915050610a87565b508381149150509392505050565b6040518060c00160405280600080191681526020016000815260200160008152602001600073ffffffffffffffffffffffffffffffffffffffff1681526020016000151581526020016000151581525090565b600080fd5b600080fd5b6000819050919050565b610bd281610bbf565b8114610bdd57600080fd5b50565b600081359050610bef81610bc9565b92915050565b600060208284031215610c0b57610c0a610bb5565b5b6000610c1984828501610be0565b91505092915050565b60008115159050919050565b610c3781610c22565b82525050565b6000602082019050610c526000830184610c2e565b92915050565b6000819050919050565b610c6b81610c58565b8114610c7657600080fd5b50565b600081359050610c8881610c62565b92915050565b60008060408385031215610ca557610ca4610bb5565b5b6000610cb385828601610be0565b9250506020610cc485828601610c79565b9150509250929050565b600081519050919050565b600082825260208201905092915050565b60005b83811015610d08578082015181840152602081019050610ced565b60008484015250505050565b6000601f19601f8301169050919050565b6000610d3082610cce565b610d3a8185610cd9565b9350610d4a818560208601610cea565b610d5381610d14565b840191505092915050565b60006020820190508181036000830152610d788184610d25565b905092915050565b610d8981610bbf565b82525050565b610d9881610c58565b82525050565b600073ffffffffffffffffffffffffffffffffffffffff82169050919050565b6000610dc982610d9e565b9050919050565b610dd981610dbe565b82525050565b610de881610c22565b82525050565b60c082016000820151610e046000850182610d80565b506020820151610e176020850182610d8f565b506040820151610e2a6040850182610d8f565b506060820151610e3d6060850182610dd0565b506080820151610e506080850182610ddf565b5060a0820151610e6360a0850182610ddf565b50505050565b600060c082019050610e7e6000830184610dee565b92915050565b600080fd5b600080fd5b600080fd5b60008083601f840112610ea957610ea8610e84565b5b8235905067ffffffffffffffff811115610ec657610ec5610e89565b5b602083019150836020820283011115610ee257610ee1610e8e565b5b9250929050565b60008060008060008060a08789031215610f0657610f05610bb5565b5b6000610f1489828a01610be0565b9650506020610f2589828a01610be0565b9550506040610f3689828a01610c79565b9450506060610f4789828a01610c79565b935050608087013567ffffffffffffffff811115610f6857610f67610bba565b5b610f7489828a01610e93565b92509250509295509295509295565b610f8c81610bbf565b82525050565b610f9b81610c58565b82525050565b610faa81610dbe565b82525050565b600060c082019050610fc56000830189610f83565b610fd26020830188610f92565b610fdf6040830187610f92565b610fec6060830186610fa1565b610ff96080830185610c2e565b61100660a0830184610c2e565b979650505050505050565b60006020820190506110266000830184610f92565b92915050565b60008083601f84011261104257611041610e84565b5b8235905067ffffffffffffffff81111561105f5761105e610e89565b5b60208301915083602082028301111561107b5761107a610e8e565b5b9250929050565b6000806000806060858703121561109c5761109b610bb5565b5b60006110aa87828801610be0565b94505060206110bb87828801610be0565b935050604085013567ffffffffffffffff8111156110dc576110db610bba565b5b6110e88782880161102c565b925092505092959194509250565b60008083601f84011261110c5761110b610e84565b5b8235905067ffffffffffffffff81111561112957611128610e89565b5b60208301915083600182028301111561114557611144610e8e565b5b9250929050565b60008060006040848603121561116557611164610bb5565b5b600061117386828701610be0565b935050602084013567ffffffffffffffff81111561119457611193610bba565b5b6111a0868287016110f6565b92509250509250925092565b7f4578616d20646f6573206e6f7420657869737400000000000000000000000000600082015250565b60006111e2601383610cd9565b91506111ed826111ac565b602082019050919050565b60006020820190508181036000830152611211816111d5565b9050919050565b7f546f6f206561726c790000000000000000000000000000000000000000000000600082015250565b600061124e600983610cd9565b915061125982611218565b602082019050919050565b6000602082019050818103600083015261127d81611241565b9050919050565b7f416c72656164792072656c656173656400000000000000000000000000000000600082015250565b60006112ba601083610cd9565b91506112c582611284565b602082019050919050565b600060208201905081810360008301526112e9816112ad565b9050919050565b7f50415045525f52454c4541534544000000000000000000000000000000000000600082015250565b6000611326600e83610cd9565b9150611331826112f0565b602082019050919050565b6000606082019050818103600083015261135581611319565b90506113646020830185610fa1565b6113716040830184610f92565b9392505050565b7f4e487b7100000000000000000000000000000000000000000000000000000000600052602260045260246000fd5b600060028204905060018216806113bf57607f821691505b6020821081036113d2576113d1611378565b5b50919050565b7f4578616d20616c72656164792065786973747300000000000000000000000000600082015250565b600061140e601383610cd9565b9150611419826113d8565b602082019050919050565b6000602082019050818103600083015261143d81611401565b9050919050565b7f53746172742074696d65206d75737420626520696e2066757475726500000000600082015250565b600061147a601c83610cd9565b915061148582611444565b602082019050919050565b600060208201905081810360008301526114a98161146d565b9050919050565b7f456e642074696d65206d75737420626520616674657220737461727400000000600082015250565b60006114e6601c83610cd9565b91506114f1826114b0565b602082019050919050565b60006020820190508181036000830152611515816114d9565b9050919050565b7f4e487b7100000000000000000000000000000000000000000000000000000000600052603260045260246000fd5b600080fd5b600080fd5b600080fd5b600080833560016020038436030381126115775761157661154b565b5b80840192508235915067ffffffffffffffff82111561159957611598611550565b5b6020830192506001820236038313156115b5576115b4611555565b5b509250929050565b600082905092915050565b7f4e487b7100000000000000000000000000000000000000000000000000000000600052604160045260246000fd5b60008190508160005260206000209050919050565b60006020601f8301049050919050565b600082821b905092915050565b6000600883026116597fffffffffffffffffffffffffffffffffffffffffffffffffffffffffffffffff8261161c565b611663868361161c565b95508019841693508086168417925050509392505050565b6000819050919050565b60006116a061169b61169684610c58565b61167b565b610c58565b9050919050565b6000819050919050565b6116ba83611685565b6116ce6116c6826116a7565b848454611629565b825550505050565b600090565b6116e36116d6565b6116ee8184846116b1565b505050565b5b81811015611712576117076000826116db565b6001810190506116f4565b5050565b601f82111561175757611728816115f7565b6117318461160c565b81016020851015611740578190505b61175461174c8561160c565b8301826116f3565b50505b505050565b600082821c905092915050565b600061177a6000198460080261175c565b1980831691505092915050565b60006117938383611769565b9150826002028217905092915050565b6117ad83836115bd565b67ffffffffffffffff8111156117c6576117c56115c8565b5b6117d082546113a7565b6117db828285611716565b6000601f83116001811461180a57600084156117f8578287013590505b6118028582611787565b86555061186a565b601f198416611818866115f7565b60005b828110156118405784890135825560018201915060208501945060208101905061181b565b8683101561185d5784890135611859601f891682611769565b8355505b6001600288020188555050505b50505050505050565b7f4e487b7100000000000000000000000000000000000000000000000000000000600052601160045260246000fd5b60006118ad82610c58565b91507fffffffffffffffffffffffffffffffffffffffffffffffffffffffffffffffff82036118df576118de611873565b5b600182019050919050565b60006040820190506118ff6000830185610f92565b61190c6020830184610fa1565b9392505050565b7f4558414d5f435245415445440000000000000000000000000000000000000000600082015250565b6000611949600c83610cd9565b915061195482611913565b602082019050919050565b600060608201905081810360008301526119788161193c565b90506119876020830185610fa1565b6119946040830184610f92565b9392505050565b82818337600083830152505050565b60006119b68385610cd9565b93506119c383858461199b565b6119cc83610d14565b840190509392505050565b600060608201905081810360008301526119f28186886119aa565b9050611a016020830185610fa1565b611a0e6040830184610f92565b95945050505050565b6000819050919050565b611a32611a2d82610bbf565b611a17565b82525050565b6000611a448285611a21565b602082019150611a548284611a21565b602082019150819050939250505056fea26469706673582212209e8ea5addaff67d1ba65a30a2c8d3f0fe88368a1dce0977a4e33686d9ed6f43064736f6c63430008140033",
  "linkReferences": {},
  "deployedLinkReferences": {}
}