{
  "_format": "hh-sol-artifact-1",
  "contractName": "ResultCertifier",
  "sourceName": "src/ResultCertifier.sol",
  "abi": [
    {
      "anonymous": false,
      "inputs": [
        {
          "indexed": false,
          "internalType": "string",
          "name": "action",
          "type": "string"
        },
        {
          "indexed": true,
          "internalType": "bytes32",
          "name": "examId",
          "type": "bytes32"
        },
        {
          "indexed": true,
          "internalType": "bytes32",
          "name": "studentDID",
          "type": "bytes32"
        },
        {
          "indexed": false,
          "internalType": "uint256",
          "name": "timestamp",
          "type": "uint256"
        }
      ],
      "name": "AuditLog",
      "type": "event"
    },
    {
      "anonymous": false,
      "inputs": [
        {
          "indexed": true,
          "internalType": "bytes32",
          "name": "examId",
          "type": "bytes32"
        },
        {
          "indexed": true,
          "internalType": "bytes32",
          "name": "studentDID",
          "type": "bytes32"
        },
        {
          "indexed": false,
          "internalType": "uint256",
          "name": "score",
          "type": "uint256"
        },
        {
          "indexed": false,
          "internalType": "bytes32",
          "name": "vcHash",
          "type": "bytes32"
        },
        {
          "indexed": false,
          "internalType": "uint256",
          "name": "timestamp",
          "type": "uint256"
        }
      ],
      "name": "ResultCertified",
      "type": "event"
    },
    {
      "inputs": [
        {
          "internalType": "bytes32",
          "name": "examId",
          "type": "bytes32"
        },
        {
          "internalType": "bytes32",
          "name": "studentDID",
          "type": "bytes32"
        },
        {
          "internalType": "uint256",
          "name": "score",
          "type": "uint256"
        },
        {
          "internalType": "uint256",
          "name": "totalMarks",
          "type": "uint256"
        },
        {
          "internalType": "bytes32",
          "name": "vcHash",
          "type": "bytes32"
        },
        {
          "internalType": "bool",
          "name": "flagged",
          "type": "bool"
        }
      ],
      "name": "certifyResult",
      "outputs": [],
      "stateMutability": "nonpayable",
      "type": "function"
    },
    {
      "inputs": [
        {
          "internalType": "bytes32",
          "name": "",
          "type": "bytes32"
        },
        {
          "internalType": "uint256",
          "name": "",
          "type": "uint256"
        }
      ],
      "name": "examStudents",
      "outputs": [
        {
          "internalType": "bytes32",
          "name": "",
          "type": "bytes32"
        }
      ],
      "stateMutability": "view",
      "type": "function"
    },
    {
      "inputs": [
        {
          "internalType": "bytes32",
          "name": "examId",
          "type": "bytes32"
        }
      ],
      "name": "getExamStudentCount",
      "outputs": [
        {
          "internalType": "uint256",
          "name": "",
          "type": "uint256"
        }
      ],
      "stateMutability": "view",
      "type": "function"
    },
    {
      "inputs": [
        {
          "internalType": "bytes32",
          "name": "examId",
          "type": "bytes32"
        },
        {
          "internalType": "bytes32",
          "name": "studentDID",
          "type": "bytes32"
        }
      ],
      "name": "getResult",
      "outputs": [
        {
          "components": [
            {
              "internalType": "bytes32",
              "name": "examId",
              "type": "bytes32"
            },
            {
              "internalType": "bytes32",
              "name": "studentDID",
              "type": "bytes32"
            },
            {
              "internalType": "uint256",
              "name": "score",
              "type": "uint256"
            },
            {
              "internalType": "uint256",
              "name": "totalMarks",
              "type": "uint256"
            },
            {
              "internalType": "uint256",
              "name": "certifiedAt",
              "type": "uint256"
            },
            {
              "internalType": "bytes32",
              "name": "vcHash",
              "type": "bytes32"
            },
            {
              "internalType": "bool",
              "name": "flagged",
              "type": "bool"
            },
            {
              "internalType": "bool",
              "name": "exists",
              "type": "bool"
            }
          ],
          "internalType": "struct ResultCertifier.Result",
          "name": "",
          "type": "tuple"
        }
      ],
      "stateMutability": "view",
      "type": "function"
    },
    {
      "inputs": [
        {
          "internalType": "bytes32",
          "name": "",
          "type": "bytes32"
        },
        {
          "internalType": "bytes32",
          "name": "",
          "type": "bytes32"
        }
      ],
      "name": "results",
      "outputs": [
        {
          "internalType": "bytes32",
          "name": "examId",
          "type": "bytes32"
        },
        {
          "internalType": "bytes32",
          "name": "studentDID",
          "type": "bytes32"
        },
        {
          "internalType": "uint256",
          "name": "score",
          "type": "uint256"
        },
        {
          "internalType": "uint256",
          "name": "totalMarks",
          "type": "uint256"
        },
        {
          "internalType": "uint256",
          "name": "certifiedAt",
          "type": "uint256"
        },
        {
          "internalType": "bytes32",
          "name": "vcHash",
          "type": "bytes32"
        },
        {
          "internalType": "bool",
          "name": "flagged",
          "type": "bool"
        },
        {
          "internalType": "bool",
          "name": "exists",
          "type": "bool"
        }
      ],
      "stateMutability": "view",
      "type": "function"
    },
    {
      "inputs": [
        {
          "internalType": "bytes32",
          "name": "examId",
          "type": "bytes32"
        },
        {
          "internalType": "bytes32",
          "name": "studentDID",
          "type": "bytes32"
        },
        {
          "internalType": "bytes32",
          "name": "vcHash",
          "type": "bytes32"
        }
      ],
      "name": "verifyCredential",
      "outputs": [
        {
          "internalType": "bool",
          "name": "",
          "type": "bool"
        }
      ],
      "stateMutability": "view",
      "type": "function"
    }
  ],
  "bytecode": "0x608060405234801561001057600080fd5b50610b9d806100206000396000f3fe608060405234801561001057600080fd5b50600436106100625760003560e01c8063265aaf5b1461006757806338563620146100835780633b31e798146100b357806399297ada146100e3578063a2b53b7c14610113578063eb847d7314610143575b600080fd5b610081600480360381019061007c91906106c5565b61017a565b005b61009d60048036038101906100989190610752565b610387565b6040516100aa919061078e565b60405180910390f35b6100cd60048036038101906100c891906107a9565b6103a7565b6040516100da91906107f8565b60405180910390f35b6100fd60048036038101906100f89190610813565b6103d8565b60405161010a9190610875565b60405180910390f35b61012d60048036038101906101289190610890565b6104aa565b60405161013a919061099f565b60405180910390f35b61015d60048036038101906101589190610890565b61055b565b6040516101719897969594939291906109bb565b60405180910390f35b600080868152602001908152602001600020600087815260200190815260200160002060060160019054906101000a900460ff16156101ee576040517f08c379a00000000000000000000000000000000000000000000000000000000081526004016101e590610a96565b60405180910390fd5b6040518061010001604052808781526020018681526020018581526020018481526020014281526020018381526020018215158152602001600115158152506000808781526020019081526020016000206000888152602001908152602001600020600082015181600001556020820151816001015560408201518160020155606082015181600301556080820151816004015560a0820151816005015560c08201518160060160006101000a81548160ff02191690831515021790555060e08201518160060160016101000a81548160ff0219169083151502179055509050506001600087815260200190815260200160002085908060018154018082558091505060019003906000526020600020016000909190919091505584867fd62fb2e1dc77a0b486f32cfd617b2a30afab191ce93479fadd9aab47e5b9e3da86854260405161033e93929190610ab6565b60405180910390a384867fb8d296eef39e4e2a04632ad844393f4748f10b38c92739199e6c36024bb67a83426040516103779190610b39565b60405180910390a3505050505050565b600060016000838152602001908152602001600020805490509050919050565b600160205281600052604060002081815481106103c357600080fd5b90600052602060002001600091509150505481565b6000806000808581526020019081526020016000206000868152602001908152602001600020604051806101000160405290816000820154815260200160018201548152602001600282015481526020016003820154815260200160048201548152602001600582015481526020016006820160009054906101000a900460ff161515151581526020016006820160019054906101000a900460ff16151515158152505090508060e0015180156104925750828160a00151145b80156104a057508060c00151155b9150509392505050565b6104b26105ca565b6000808381526020019081526020016000206000848152602001908152602001600020604051806101000160405290816000820154815260200160018201548152602001600282015481526020016003820154815260200160048201548152602001600582015481526020016006820160009054906101000a900460ff161515151581526020016006820160019054906101000a900460ff161515151581525050905092915050565b6000602052816000526040600020602052806000526040600020600091509150508060000154908060010154908060020154908060030154908060040154908060050154908060060160009054906101000a900460ff16908060060160019054906101000a900460ff16905088565b6040518061010001604052806000801916815260200160008019168152602001600081526020016000815260200160008152602001600080191681526020016000151581526020016000151581525090565b600080fd5b6000819050919050565b61063481610621565b811461063f57600080fd5b50565b6000813590506106518161062b565b92915050565b6000819050919050565b61066a81610657565b811461067557600080fd5b50565b60008135905061068781610661565b92915050565b60008115159050919050565b6106a28161068d565b81146106ad57600080fd5b50565b6000813590506106bf81610699565b92915050565b60008060008060008060c087890312156106e2576106e161061c565b5b60006106f089828a01610642565b965050602061070189828a01610642565b955050604061071289828a01610678565b945050606061072389828a01610678565b935050608061073489828a01610642565b92505060a061074589828a016106b0565b9150509295509295509295565b6000602082840312156107685761076761061c565b5b600061077684828501610642565b91505092915050565b61078881610657565b82525050565b60006020820190506107a3600083018461077f565b92915050565b600080604083850312156107c0576107bf61061c565b5b60006107ce85828601610642565b92505060206107df85828601610678565b9150509250929050565b6107f281610621565b82525050565b600060208201905061080d60008301846107e9565b92915050565b60008060006060848603121561082c5761082b61061c565b5b600061083a86828701610642565b935050602061084b86828701610642565b925050604061085c86828701610642565b9150509250925092565b61086f8161068d565b82525050565b600060208201905061088a6000830184610866565b92915050565b600080604083850312156108a7576108a661061c565b5b60006108b585828601610642565b92505060206108c685828601610642565b9150509250929050565b6108d981610621565b82525050565b6108e881610657565b82525050565b6108f78161068d565b82525050565b6101008201600082015161091460008501826108d0565b50602082015161092760208501826108d0565b50604082015161093a60408501826108df565b50606082015161094d60608501826108df565b50608082015161096060808501826108df565b5060a082015161097360a08501826108d0565b5060c082015161098660c08501826108ee565b5060e082015161099960e08501826108ee565b50505050565b6000610100820190506109b560008301846108fd565b92915050565b6000610100820190506109d1600083018b6107e9565b6109de602083018a6107e9565b6109eb604083018961077f565b6109f8606083018861077f565b610a05608083018761077f565b610a1260a08301866107e9565b610a1f60c0830185610866565b610a2c60e0830184610866565b9998505050505050505050565b600082825260208201905092915050565b7f526573756c7420616c7265616479206365727469666965640000000000000000600082015250565b6000610a80601883610a39565b9150610a8b82610a4a565b602082019050919050565b60006020820190508181036000830152610aaf81610a73565b9050919050565b6000606082019050610acb600083018661077f565b610ad860208301856107e9565b610ae5604083018461077f565b949350505050565b7f524553554c545f43455254494649454400000000000000000000000000000000600082015250565b6000610b23601083610a39565b9150610b2e82610aed565b602082019050919050565b60006040820190508181036000830152610b5281610b16565b9050610b61602083018461077f565b9291505056fea2646970667358221220a1bd4a8ebf4d32825ff7a6d9a687ea2fc2706aa79e493d8c083d4d6256ec1a4364736f6c63430008140033",
  "linkReferences": {},
  "deployedLinkReferences": {}
}