{"src/ResultCertifier.sol":{"ResultCertifier":{"abi":[{"anonymous":false,"inputs":[{"indexed":false,"internalType":"string","name":"action","type":"string"},{"indexed":true,"internalType":"bytes32","name":"examId","type":"bytes32"},{"indexed":true,"internalType":"bytes32","name":"studentDID","type":"bytes32"},{"indexed":false,"internalType":"uint256","name":"timestamp","type":"uint256"}],"name":"AuditLog","type":"event"},{"anonymous":false,"inputs":[{"indexed":true,"internalType":"bytes32","name":"examId","type":"bytes32"},{"indexed":true,"internalType":"bytes32","name":"studentDID","type":"bytes32"},{"indexed":false,"internalType":"uint256","name":"score","type":"uint256"},{"indexed":false,"internalType":"bytes32","name":"vcHash","type":"bytes32"},{"indexed":false,"internalType":"uint256","name":"timestamp","type":"uint256"}],"name":"ResultCertified","type":"event"},{"inputs":[{"internalType":"bytes32","name":"examId","type":"bytes32"},{"internalType":"bytes32","name":"studentDID","type":"bytes32"},{"internalType":"uint256","name":"score","type":"uint256"},{"internalType":"uint256","name":"totalMarks","type":"uint256"},{"internalType":"bytes32","name":"vcHash","type":"bytes32"},{"internalType":"bool","name":"flagged","type":"bool"}],"name":"certifyResult","outputs":[],"stateMutability":"nonpayable","type":"function"},{"inputs":[{"internalType":"bytes32","name":"","type":"bytes32"},{"internalType":"uint256","name":"","type":"uint256"}],"name":"examStudents","outputs":[{"internalType":"bytes32","name":"","type":"bytes32"}],"stateMutability":"view","type":"function"},{"inputs":[{"internalType":"bytes32","name":"examId","type":"bytes32"}],"name":"getExamStudentCount","outputs":[{"internalType":"uint256","name":"","type":"uint256"}],"stateMutability":"view","type":"function"},{"inputs":[{"internalType":"bytes32","name":"examId","type":"bytes32"},{"internalType":"bytes32","name":"studentDID","type":"bytes32"}],"name":"getResult","outputs":[{"components":[{"internalType":"bytes32","name":"examId","type":"bytes32"},{"internalType":"bytes32","name":"studentDID","type":"bytes32"},{"internalType":"uint256","name":"score","type":"uint256"},{"internalType":"uint256","name":"totalMarks","type":"uint256"},{"internalType":"uint256","name":"certifiedAt","type":"uint256"},{"internalType":"bytes32","name":"vcHash","type":"bytes32"},{"internalType":"bool","name":"flagged","type":"bool"},{"internalType":"bool","name":"exists","type":"bool"}],"internalType":"struct ResultCertifier.Result","name":"","type":"tuple"}],"stateMutability":"view","type":"function"},{"inputs":[{"internalType":"bytes32","name":"","type":"bytes32"},{"internalType":"bytes32","name":"","type":"bytes32"}],"name":"results","outputs":[{"internalType":"bytes32","name":"examId","type":"bytes32"},{"internalType":"bytes32","name":"studentDID","type":"bytes32"},{"internalType":"uint256","name":"score","type":"uint256"},{"internalType":"uint256","name":"totalMarks","type":"uint256"},{"internalType":"uint256","name":"certifiedAt","type":"uint256"},{"internalType":"bytes32","name":"vcHash","type":"bytes32"},{"internalType":"bool","name":"flagged","type":"bool"},{"internalType":"bool","name":"exists","type":"bool"}],"stateMutability":"view","type":"function"},{"inputs":[{"internalType":"bytes32","name":"examId","type":"bytes32"},{"internalType":"bytes32","name":"studentDID","type":"bytes32"},{"internalType":"bytes32","name":"vcHash","type":"bytes32"}],"name":"verifyCredential","outputs":[{"internalType":"bool","name":"","type":"bool"}],"stateMutability":"view","type":"function"}],"evm":{"bytecode":{"linkReferences":{},"object":"608060405234801561001057600080fd5b50610b9d806100206000396000f3fe608060405234801561001057600080fd5b50600436106100625760003560e01c8063265aaf5b1461006757806338563620146100835780633b31e798146100b357806399297ada146100e3578063a2b53b7c14610113578063eb847d7314610143575b600080fd5b610081600480360381019061007c91906106c5565b61017a565b005b61009d60048036038101906100989190610752565b610387565b6040516100aa919061078e565b60405180910390f35b6100cd60048036038101906100c891906107a9565b6103a7565b6040516100da91906107f8565b60405180910390f35b6100fd60048036038101906100f89190610813565b6103d8565b60405161010a9190610875565b60405180910390f35b61012d60048036038101906101289190610890565b6104aa565b60405161013a919061099f565b60405180910390f35b61015d60048036038101906101589190610890565b61055b565b6040516101719897969594939291906109bb565b60405180910390f35b600080868152602001908152602001600020600087815260200190815260200160002060060160019054906101000a900460ff16156101ee576040517f08c379a00000000000000000000000000000000000000000000000000000000081526004016101e590610a96565b60405180910390fd5b6040518061010001604052808781526020018681526020018581526020018481526020014281526020018381526020018215158152602001600115158152506000808781526020019081526020016000206000888152602001908152602001600020600082015181600001556020820151816001015560408201518160020155606082015181600301556080820151816004015560a0820151816005015560c08201518160060160006101000a81548160ff02191690831515021790555060e08201518160060160016101000a81548160ff0219169083151502179055509050506001600087815260200190815260200160002085908060018154018082558091505060019003906000526020600020016000909190919091505584867fd62fb2e1dc77a0b486f32cfd617b2a30afab191ce93479fadd9aab47e5b9e3da86854260405161033e93929190610ab6565b60405180910390a384867fb8d296eef39e4e2a04632ad844393f4748f10b38c92739199e6c36024bb67a83426040516103779190610b39565b60405180910390a3505050505050565b600060016000838152602001908152602001600020805490509050919050565b600160205281600052604060002081815481106103c357600080fd5b90600052602060002001600091509150505481565b6000806000808581526020019081526020016000206000868152602001908152602001600020604051806101000160405290816000820154815260200160018201548152602001600282015481526020016003820154815260200160048201548152602001600582015481526020016006820160009054906101000a900460ff161515151581526020016006820160019054906101000a900460ff16151515158152505090508060e0015180156104925750828160a00151145b80156104a057508060c00151155b9150509392505050565b6104b26105ca565b6000808381526020019081526020016000206000848152602001908152602001600020604051806101000160405290816000820154815260200160018201548152602001600282015481526020016003820154815260200160048201548152602001600582015481526020016006820160009054906101000a900460ff161515151581526020016006820160019054906101000a900460ff161515151581525050905092915050565b6000602052816000526040600020602052806000526040600020600091509150508060000154908060010154908060020154908060030154908060040154908060050154908060060160009054906101000a900460ff16908060060160019054906101000a900460ff16905088565b6040518061010001604052806000801916815260200160008019168152602001600081526020016000815260200160008152602001600080191681526020016000151581526020016000151581525090565b600080fd5b6000819050919050565b61063481610621565b811461063f57600080fd5b50565b6000813590506106518161062b565b92915050565b6000819050919050565b61066a81610657565b811461067557600080fd5b50565b60008135905061068781610661565b92915050565b60008115159050919050565b6106a28161068d565b81146106ad57600080fd5b50565b6000813590506106bf81610699565b92915050565b60008060008060008060c087890312156106e2576106e161061c565b5b60006106f089828a01610642565b965050602061070189828a01610642565b955050604061071289828a01610678565b945050606061072389828a01610678565b935050608061073489828a01610642565b92505060a061074589828a016106b0565b9150509295509295509295565b6000602082840312156107685761076761061c565b5b600061077684828501610642565b91505092915050565b61078881610657565b82525050565b60006020820190506107a3600083018461077f565b92915050565b600080604083850312156107c0576107bf61061c565b5b60006107ce85828601610642565b92505060206107df85828601610678565b9150509250929050565b6107f281610621565b82525050565b600060208201905061080d60008301846107e9565b92915050565b60008060006060848603121561082c5761082b61061c565b5b600061083a86828701610642565b935050602061084b86828701610642565b925050604061085c86828701610642565b9150509250925092565b61086f8161068d565b82525050565b600060208201905061088a6000830184610866565b92915050565b600080604083850312156108a7576108a661061c565b5b60006108b585828601610642565b92505060206108c685828601610642565b9150509250929050565b6108d981610621565b82525050565b6108e881610657565b82525050565b6108f78161068d565b82525050565b6101008201600082015161091460008501826108d0565b50602082015161092760208501826108d0565b50604082015161093a60408501826108df565b50606082015161094d60608501826108df565b50608082015161096060808501826108df565b5060a082015161097360a08501826108d0565b5060c082015161098660c08501826108ee565b5060e082015161099960e08501826108ee565b50505050565b6000610100820190506109b560008301846108fd565b92915050565b6000610100820190506109d1600083018b6107e9565b6109de602083018a6107e9565b6109eb604083018961077f565b6109f8606083018861077f565b610a05608083018761077f565b610a1260a08301866107e9565b610a1f60c0830185610866565b610a2c60e0830184610866565b9998505050505050505050565b600082825260208201905092915050565b7f526573756c7420616c7265616479206365727469666965640000000000000000600082015250565b6000610a80601883610a39565b9150610a8b82610a4a565b602082019050919050565b60006020820190508181036000830152610aaf81610a73565b9050919050565b6000606082019050610acb600083018661077f565b610ad860208301856107e9565b610ae5604083018461077f565b949350505050565b7f524553554c545f43455254494649454400000000000000000000000000000000600082015250565b6000610b23601083610a39565b9150610b2e82610aed565b602082019050919050565b60006040820190508181036000830152610b5281610b16565b9050610b61602083018461077f565b9291505056fea2646970667358221220a1bd4a8ebf4d32825ff7a6d9a687ea2fc2706aa79e493d8c083d4d6256ec1a4364736f6c63430008140033","opcodes":"PUSH1 0x80 PUSH1 0x40 MSTORE CALLVALUE DUP1 ISZERO PUSH2 0x10 JUMPI PUSH1 0x0 DUP1 REVERT JUMPDEST POP PUSH2 0xB9D DUP1 PUSH2 0x20 PUSH1 0x0 CODECOPY PUSH1 0x0 RETURN INVALID PUSH1 0x80 PUSH1 0x40 MSTORE CALLVALUE DUP1 ISZERO PUSH2 0x10 JUMPI PUSH1 0x0 DUP1 REVERT JUMPDEST POP PUSH1 0x4 CALLDATASIZE LT PUSH2 0x62 JUMPI PUSH1 0x0 CALLDATALOAD PUSH1 0xE0 SHR DUP1 PUSH4 0x265AAF5B EQ PUSH2 0x67 JUMPI DUP1 PUSH4 0x38563620 EQ PUSH2 0x83 JUMPI DUP1 PUSH4 0x3B31E798 EQ PUSH2 0xB3 JUMPI DUP1 PUSH4 0x99297ADA EQ PUSH2 0xE3 JUMPI DUP1 PUSH4 0xA2B53B7C EQ PUSH2 0x113 JUMPI DUP1 PUSH4 0xEB847D73 EQ PUSH2 0x143 JUMPI JUMPDEST PUSH1 0x0 DUP1 REVERT JUMPDEST PUSH2 0x81 PUSH1 0x4 DUP1 CALLDATASIZE SUB DUP2 ADD SWAP1 PUSH2 0x7C SWAP2 SWAP1 PUSH2 0x6C5 JUMP JUMPDEST PUSH2 0x17A JUMP JUMPDEST STOP JUMPDEST PUSH2 0x9D PUSH1 0x4 DUP1 CALLDATASIZE SUB DUP2 ADD SWAP1 PUSH2 0x98 SWAP2 SWAP1 PUSH2 0x752 JUMP JUMPDEST PUSH2 0x387 JUMP JUMPDEST PUSH1 0x40 MLOAD PUSH2 0xAA SWAP2 SWAP1 PUSH2 0x78E JUMP JUMPDEST PUSH1 0x40 MLOAD DUP1 SWAP2 SUB SWAP1 RETURN JUMPDEST PUSH2 0xCD PUSH1 0x4 DUP1 CALLDATASIZE SUB DUP2 ADD SWAP1 PUSH2 0xC8 SWAP2 SWAP1 PUSH2 0x7A9 JUMP JUMPDEST PUSH2 0x3A7 JUMP JUMPDEST PUSH1 0x40 MLOAD PUSH2 0xDA SWAP2 SWAP1 PUSH2 0x7F8 JUMP JUMPDEST PUSH1 0x40 MLOAD DUP1 SWAP2 SUB SWAP1 RETURN JUMPDEST PUSH2 0xFD PUSH1 0x4 DUP1 CALLDATASIZE SUB DUP2 ADD SWAP1 PUSH2 0xF8 SWAP2 SWAP1 PUSH2 0x813 JUMP JUMPDEST PUSH2 0x3D8 JUMP JUMPDEST PUSH1 0x40 MLOAD PUSH2 0x10A SWAP2 SWAP1 PUSH2 0x875 JUMP JUMPDEST PUSH1 0x40 MLOAD DUP1 SWAP2 SUB SWAP1 RETURN JUMPDEST PUSH2 0x12D PUSH1 0x4 DUP1 CALLDATASIZE SUB DUP2 ADD SWAP1 PUSH2 0x128 SWAP2 SWAP1 PUSH2 0x890 JUMP JUMPDEST PUSH2 0x4AA JUMP JUMPDEST PUSH1 0x40 MLOAD PUSH2 0x13A SWAP2 SWAP1 PUSH2 0x99F JUMP JUMPDEST PUSH1 0x40 MLOAD DUP1 SWAP2 SUB SWAP1 RETURN JUMPDEST PUSH2 0x15D PUSH1 0x4 DUP1 CALLDATASIZE SUB DUP2 ADD SWAP1 PUSH2 0x158 SWAP2 SWAP1 PUSH2 0x890 JUMP JUMPDEST PUSH2 0x55B JUMP JUMPDEST PUSH1 0x40 MLOAD PUSH2 0x171 SWAP9 SWAP8 SWAP7 SWAP6 SWAP5 SWAP4 SWAP3 SWAP2 SWAP1 PUSH2 0x9BB JUMP JUMPDEST PUSH1 0x40 MLOAD DUP1 SWAP2 SUB SWAP1 RETURN JUMPDEST PUSH1 0x0 DUP1 DUP7 DUP2 MSTORE PUSH1 0x20 ADD SWAP1 DUP2 MSTORE PUSH1 0x20 ADD PUSH1 0x0 KECCAK256 PUSH1 0x0 DUP8 DUP2 MSTORE PUSH1 0x20 ADD SWAP1 DUP2 MSTORE PUSH1 0x20 ADD PUSH1 0x0 KECCAK256 PUSH1 0x6 ADD PUSH1 0x1 SWAP1 SLOAD SWAP1 PUSH2 0x100 EXP SWAP1 DIV PUSH1 0xFF AND ISZERO PUSH2 0x1EE JUMPI PUSH1 0x40 MLOAD PUSH32 0x8C379A000000000000000000000000000000000000000000000000000000000 DUP2 MSTORE PUSH1 0x4 ADD PUSH2 0x1E5 SWAP1 PUSH2 0xA96 JUMP JUMPDEST PUSH1 0x40 MLOAD DUP1 SWAP2 SUB SWAP1 REVERT JUMPDEST PUSH1 0x40 MLOAD DUP1 PUSH2 0x100 ADD PUSH1 0x40 MSTORE DUP1 DUP8 DUP2 MSTORE PUSH1 0x20 ADD DUP7 DUP2 MSTORE PUSH1 0x20 ADD DUP6 DUP2 MSTORE PUSH1 0x20 ADD DUP5 DUP2 MSTORE PUSH1 0x20 ADD TIMESTAMP DUP2 MSTORE PUSH1 0x20 ADD DUP4 DUP2 MSTORE PUSH1 0x20 ADD DUP3 ISZERO ISZERO DUP2 MSTORE PUSH1 0x20 ADD PUSH1 0x1 ISZERO ISZERO DUP2 MSTORE POP PUSH1 0x0 DUP1 DUP8 DUP2 MSTORE PUSH1 0x20 ADD SWAP1 DUP2 MSTORE PUSH1 0x20 ADD PUSH1 0x0 KECCAK256 PUSH1 0x0 DUP9 DUP2 MSTORE PUSH1 0x20 ADD SWAP1 DUP2 MSTORE PUSH1 0x20 ADD PUSH1 0x0 KECCAK256 PUSH1 0x0 DUP3 ADD MLOAD DUP2 PUSH1 0x0 ADD SSTORE PUSH1 0x20 DUP3 ADD MLOAD DUP2 PUSH1 0x1 ADD SSTORE PUSH1 0x40 DUP3 ADD MLOAD DUP2 PUSH1 0x2 ADD SSTORE PUSH1 0x60 DUP3 ADD MLOAD DUP2 PUSH1 0x3 ADD SSTORE PUSH1 0x80 DUP3 ADD MLOAD DUP2 PUSH1 0x4 ADD SSTORE PUSH1 0xA0 DUP3 ADD MLOAD DUP2 PUSH1 0x5 ADD SSTORE PUSH1 0xC0 DUP3 ADD MLOAD DUP2 PUSH1 0x6 ADD PUSH1 0x0 PUSH2 0x100 EXP DUP2 SLOAD DUP2 PUSH1 0xFF MUL NOT AND SWAP1 DUP4 ISZERO ISZERO MUL OR SWAP1 SSTORE POP PUSH1 0xE0 DUP3 ADD MLOAD DUP2 PUSH1 0x6 ADD PUSH1 0x1 PUSH2 0x100 EXP DUP2 SLOAD DUP2 PUSH1 0xFF MUL NOT AND SWAP1 DUP4 ISZERO ISZERO MUL OR SWAP1 SSTORE POP SWAP1 POP POP PUSH1 0x1 PUSH1 0x0 DUP8 DUP2 MSTORE PUSH1 0x20 ADD SWAP1 DUP2 MSTORE PUSH1 0x20 ADD PUSH1 0x0 KECCAK256 DUP6 SWAP1 DUP1 PUSH1 0x1 DUP2 SLOAD ADD DUP1 DUP3 SSTORE DUP1 SWAP2 POP POP PUSH1 0x1 SWAP1 SUB SWAP1 PUSH1 0x0 MSTORE PUSH1 0x20 PUSH1 0x0 KECCAK256 ADD PUSH1 0x0 SWAP1 SWAP2 SWAP1 SWAP2 SWAP1 SWAP2 POP SSTORE DUP5 DUP7 PUSH32 0xD62FB2E1DC77A0B486F32CFD617B2A30AFAB191CE93479FADD9AAB47E5B9E3DA DUP7 DUP6 TIMESTAMP PUSH1 0x40 MLOAD PUSH2 0x33E SWAP4 SWAP3 SWAP2 SWAP1 PUSH2 0xAB6 JUMP JUMPDEST PUSH1 0x40 MLOAD DUP1 SWAP2 SUB SWAP1 LOG3 DUP5 DUP7 PUSH32 0xB8D296EEF39E4E2A04632AD844393F4748F10B38C92739199E6C36024BB67A83 TIMESTAMP PUSH1 0x40 MLOAD PUSH2 0x377 SWAP2 SWAP1 PUSH2 0xB39 JUMP JUMPDEST PUSH1 0x40 MLOAD DUP1 SWAP2 SUB SWAP1 LOG3 POP POP POP POP POP POP JUMP JUMPDEST PUSH1 0x0 PUSH1 0x1 PUSH1 0x0 DUP4 DUP2 MSTORE PUSH1 0x20 ADD SWAP1 DUP2 MSTORE PUSH1 0x20 ADD PUSH1 0x0 KECCAK256 DUP1 SLOAD SWAP1 POP SWAP1 POP SWAP2 SWAP1 POP JUMP JUMPDEST PUSH1 0x1 PUSH1 0x20 MSTORE DUP2 PUSH1 0x0 MSTORE PUSH1 0x40 PUSH1 0x0 KECCAK256 DUP2 DUP2 SLOAD DUP2 LT PUSH2 0x3C3 JUMPI PUSH1 0x0 DUP1 REVERT JUMPDEST SWAP1 PUSH1 0x0 MSTORE PUSH1 0x20 PUSH1 0x0 KECCAK256 ADD PUSH1 0x0 SWAP2 POP SWAP2 POP POP SLOAD DUP2 JUMP JUMPDEST PUSH1 0x0 DUP1 PUSH1 0x0 DUP1 DUP6 DUP2 MSTORE PUSH1 0x20 ADD SWAP1 DUP2 MSTORE PUSH1 0x20 ADD PUSH1 0x0 KECCAK256 PUSH1 0x0 DUP7 DUP2 MSTORE PUSH1 0x20 ADD SWAP1 DUP2 MSTORE PUSH1 0x20 ADD PUSH1 0x0 KECCAK256 PUSH1 0x40 MLOAD DUP1 PUSH2 0x100 ADD PUSH1 0x40 MSTORE SWAP1 DUP2 PUSH1 0x0 DUP3 ADD SLOAD DUP2 MSTORE PUSH1 0x20 ADD PUSH1 0x1 DUP3 ADD SLOAD DUP2 MSTORE PUSH1 0x20 ADD PUSH1 0x2 DUP3 ADD SLOAD DUP2 MSTORE PUSH1 0x20 ADD PUSH1 0x3 DUP3 ADD SLOAD DUP2 MSTORE PUSH1 0x20 ADD PUSH1 0x4 DUP3 ADD SLOAD DUP2 MSTORE PUSH1 0x20 ADD PUSH1 0x5 DUP3 ADD SLOAD DUP2 MSTORE PUSH1 0x20 ADD PUSH1 0x6 DUP3 ADD PUSH1 0x0 SWAP1 SLOAD SWAP1 PUSH2 0x100 EXP SWAP1 DIV PUSH1 0xFF AND ISZERO ISZERO ISZERO ISZERO DUP2 MSTORE PUSH1 0x20 ADD PUSH1 0x6 DUP3 ADD PUSH1 0x1 SWAP1 SLOAD SWAP1 PUSH2 0x100 EXP SWAP1 DIV PUSH1 0xFF AND ISZERO ISZERO ISZERO ISZERO DUP2 MSTORE POP POP SWAP1 POP DUP1 PUSH1 0xE0 ADD MLOAD DUP1 ISZERO PUSH2 0x492 JUMPI POP DUP3 DUP2 PUSH1 0xA0 ADD MLOAD EQ JUMPDEST DUP1 ISZERO PUSH2 0x4A0 JUMPI POP DUP1 PUSH1 0xC0 ADD MLOAD ISZERO JUMPDEST SWAP2 POP POP SWAP4 SWAP3 POP POP POP JUMP JUMPDEST PUSH2 0x4B2 PUSH2 0x5CA JUMP JUMPDEST PUSH1 0x0 DUP1 DUP4 DUP2 MSTORE PUSH1 0x20 ADD SWAP1 DUP2 MSTORE PUSH1 0x20 ADD PUSH1 0x0 KECCAK256 PUSH1 0x0 DUP5 DUP2 MSTORE PUSH1 0x20 ADD SWAP1 DUP2 MSTORE PUSH1 0x20 ADD PUSH1 0x0 KECCAK256 PUSH1 0x40 MLOAD DUP1 PUSH2 0x100 ADD PUSH1 0x40 MSTORE SWAP1 DUP2 PUSH1 0x0 DUP3 ADD SLOAD DUP2 MSTORE PUSH1 0x20 ADD PUSH1 0x1 DUP3 ADD SLOAD DUP2 MSTORE PUSH1 0x20 ADD PUSH1 0x2 DUP3 ADD SLOAD DUP2 MSTORE PUSH1 0x20 ADD PUSH1 0x3 DUP3 ADD SLOAD DUP2 MSTORE PUSH1 0x20 ADD PUSH1 0x4 DUP3 ADD SLOAD DUP2 MSTORE PUSH1 0x20 ADD PUSH1 0x5 DUP3 ADD SLOAD DUP2 MSTORE PUSH1 0x20 ADD PUSH1 0x6 DUP3 ADD PUSH1 0x0 SWAP1 SLOAD SWAP1 PUSH2 0x100 EXP SWAP1 DIV PUSH1 0xFF AND ISZERO ISZERO ISZERO ISZERO DUP2 MSTORE PUSH1 0x20 ADD PUSH1 0x6 DUP3 ADD PUSH1 0x1 SWAP1 SLOAD SWAP1 PUSH2 0x100 EXP SWAP1 DIV PUSH1 0xFF AND ISZERO ISZERO ISZERO ISZERO DUP2 MSTORE POP POP SWAP1 POP SWAP3 SWAP2 POP POP JUMP JUMPDEST PUSH1 0x0 PUSH1 0x20 MSTORE DUP2 PUSH1 0x0 MSTORE PUSH1 0x40 PUSH1 0x0 KECCAK256 PUSH1 0x20 MSTORE DUP1 PUSH1 0x0 MSTORE PUSH1 0x40 PUSH1 0x0 KECCAK256 PUSH1 0x0 SWAP2 POP SWAP2 POP POP DUP1 PUSH1 0x0 ADD SLOAD SWAP1 DUP1 PUSH1 0x1 ADD SLOAD SWAP1 DUP1 PUSH1 0x2 ADD SLOAD SWAP1 DUP1 PUSH1 0x3 ADD SLOAD SWAP1 DUP1 PUSH1 0x4 ADD SLOAD SWAP1 DUP1 PUSH1 0x5 ADD SLOAD SWAP1 DUP1 PUSH1 0x6 ADD PUSH1 0x0 SWAP1 SLOAD SWAP1 PUSH2 0x100 EXP SWAP1 DIV PUSH1 0xFF AND SWAP1 DUP1 PUSH1 0x6 ADD PUSH1 0x1 SWAP1 SLOAD SWAP1 PUSH2 0x100 EXP SWAP1 DIV PUSH1 0xFF AND SWAP1 POP DUP9 JUMP JUMPDEST PUSH1 0x40 MLOAD DUP1 PUSH2 0x100 ADD PUSH1 0x40 MSTORE DUP1 PUSH1 0x0 DUP1 NOT AND DUP2 MSTORE PUSH1 0x20 ADD PUSH1 0x0 DUP1 NOT AND DUP2 MSTORE PUSH1 0x20 ADD PUSH1 0x0 DUP2 MSTORE PUSH1 0x20 ADD PUSH1 0x0 DUP2 MSTORE PUSH1 0x20 ADD PUSH1 0x0 DUP2 MSTORE PUSH1 0x20 ADD PUSH1 0x0 DUP1 NOT AND DUP2 MSTORE PUSH1 0x20 ADD PUSH1 0x0 ISZERO ISZERO DUP2 MSTORE PUSH1 0x20 ADD PUSH1 0x0 ISZERO ISZERO DUP2 MSTORE POP SWAP1 JUMP JUMPDEST PUSH1 0x0 DUP1 REVERT JUMPDEST PUSH1 0x0 DUP2 SWAP1 POP SWAP2 SWAP1 POP JUMP JUMPDEST PUSH2 0x634 DUP2 PUSH2 0x621 JUMP JUMPDEST DUP2 EQ PUSH2 0x63F JUMPI PUSH1 0x0 DUP1 REVERT JUMPDEST POP JUMP JUMPDEST PUSH1 0x0 DUP2 CALLDATALOAD SWAP1 POP PUSH2 0x651 DUP2 PUSH2 0x62B JUMP JUMPDEST SWAP3 SWAP2 POP POP JUMP JUMPDEST PUSH1 0x0 DUP2 SWAP1 POP SWAP2 SWAP1 POP JUMP JUMPDEST PUSH2 0x66A DUP2 PUSH2 0x657 JUMP JUMPDEST DUP2 EQ PUSH2 0x675 JUMPI PUSH1 0x0 DUP1 REVERT JUMPDEST POP JUMP JUMPDEST PUSH1 0x0 DUP2 CALLDATALOAD SWAP1 POP PUSH2 0x687 DUP2 PUSH2 0x661 JUMP JUMPDEST SWAP3 SWAP2 POP POP JUMP JUMPDEST PUSH1 0x0 DUP2 ISZERO ISZERO SWAP1 POP SWAP2 SWAP1 POP JUMP JUMPDEST PUSH2 0x6A2 DUP2 PUSH2 0x68D JUMP JUMPDEST DUP2 EQ PUSH2 0x6AD JUMPI PUSH1 0x0 DUP1 REVERT JUMPDEST POP JUMP JUMPDEST PUSH1 0x0 DUP2 CALLDATALOAD SWAP1 POP PUSH2 0x6BF DUP2 PUSH2 0x699 JUMP JUMPDEST SWAP3 SWAP2 POP POP JUMP JUMPDEST PUSH1 0x0 DUP1 PUSH1 0x0 DUP1 PUSH1 0x0 DUP1 PUSH1 0xC0 DUP8 DUP10 SUB SLT ISZERO PUSH2 0x6E2 JUMPI PUSH2 0x6E1 PUSH2 0x61C JUMP JUMPDEST JUMPDEST PUSH1 0x0 PUSH2 0x6F0 DUP10 DUP3 DUP11 ADD PUSH2 0x642 JUMP JUMPDEST SWAP7 POP POP PUSH1 0x20 PUSH2 0x701 DUP10 DUP3 DUP11 ADD PUSH2 0x642 JUMP JUMPDEST SWAP6 POP POP PUSH1 0x40 PUSH2 0x712 DUP10 DUP3 DUP11 ADD PUSH2 0x678 JUMP JUMPDEST SWAP5 POP POP PUSH1 0x60 PUSH2 0x723 DUP10 DUP3 DUP11 ADD PUSH2 0x678 JUMP JUMPDEST SWAP4 POP POP PUSH1 0x80 PUSH2 0x734 DUP10 DUP3 DUP11 ADD PUSH2 0x642 JUMP JUMPDEST SWAP3 POP POP PUSH1 0xA0 PUSH2 0x745 DUP10 DUP3 DUP11 ADD PUSH2 0x6B0 JUMP JUMPDEST SWAP2 POP POP SWAP3 SWAP6 POP SWAP3 SWAP6 POP SWAP3 SWAP6 JUMP JUMPDEST PUSH1 0x0 PUSH1 0x20 DUP3 DUP5 SUB SLT ISZERO PUSH2 0x768 JUMPI PUSH2 0x767 PUSH2 0x61C JUMP JUMPDEST JUMPDEST PUSH1 0x0 PUSH2 0x776 DUP5 DUP3 DUP6 ADD PUSH2 0x642 JUMP JUMPDEST SWAP2 POP POP SWAP3 SWAP2 POP POP JUMP JUMPDEST PUSH2 0x788 DUP2 PUSH2 0x657 JUMP JUMPDEST DUP3 MSTORE POP POP JUMP JUMPDEST PUSH1 0x0 PUSH1 0x20 DUP3 ADD SWAP1 POP PUSH2 0x7A3 PUSH1 0x0 DUP4 ADD DUP5 PUSH2 0x77F JUMP JUMPDEST SWAP3 SWAP2 POP POP JUMP JUMPDEST PUSH1 0x0 DUP1 PUSH1 0x40 DUP4 DUP6 SUB SLT ISZERO PUSH2 0x7C0 JUMPI PUSH2 0x7BF PUSH2 0x61C JUMP JUMPDEST JUMPDEST PUSH1 0x0 PUSH2 0x7CE DUP6 DUP3 DUP7 ADD PUSH2 0x642 JUMP JUMPDEST SWAP3 POP POP PUSH1 0x20 PUSH2 0x7DF DUP6 DUP3 DUP7 ADD PUSH2 0x678 JUMP JUMPDEST SWAP2 POP POP SWAP3 POP SWAP3 SWAP1 POP JUMP JUMPDEST PUSH2 0x7F2 DUP2 PUSH2 0x621 JUMP JUMPDEST DUP3 MSTORE POP POP JUMP JUMPDEST PUSH1 0x0 PUSH1 0x20 DUP3 ADD SWAP1 POP PUSH2 0x80D PUSH1 0x0 DUP4 ADD DUP5 PUSH2 0x7E9 JUMP JUMPDEST SWAP3 SWAP2 POP POP JUMP JUMPDEST PUSH1 0x0 DUP1 PUSH1 0x0 PUSH1 0x60 DUP5 DUP7 SUB SLT ISZERO PUSH2 0x82C JUMPI PUSH2 0x82B PUSH2 0x61C JUMP JUMPDEST JUMPDEST PUSH1 0x0 PUSH2 0x83A DUP7 DUP3 DUP8 ADD PUSH2 0x642 JUMP JUMPDEST SWAP4 POP POP PUSH1 0x20 PUSH2 0x84B DUP7 DUP3 DUP8 ADD PUSH2 0x642 JUMP JUMPDEST SWAP3 POP POP PUSH1 0x40 PUSH2 0x85C DUP7 DUP3 DUP8 ADD PUSH2 0x642 JUMP JUMPDEST SWAP2 POP POP SWAP3 POP SWAP3 POP SWAP3 JUMP JUMPDEST PUSH2 0x86F DUP2 PUSH2 0x68D JUMP JUMPDEST DUP3 MSTORE POP POP JUMP JUMPDEST PUSH1 0x0 PUSH1 0x20 DUP3 ADD SWAP1 POP PUSH2 0x88A PUSH1 0x0 DUP4 ADD DUP5 PUSH2 0x866 JUMP JUMPDEST SWAP3 SWAP2 POP POP JUMP JUMPDEST PUSH1 0x0 DUP1 PUSH1 0x40 DUP4 DUP6 SUB SLT ISZERO PUSH2 0x8A7 JUMPI PUSH2 0x8A6 PUSH2 0x61C JUMP JUMPDEST JUMPDEST PUSH1 0x0 PUSH2 0x8B5 DUP6 DUP3 DUP7 ADD PUSH2 0x642 JUMP JUMPDEST SWAP3 POP POP PUSH1 0x20 PUSH2 0x8C6 DUP6 DUP3 DUP7 ADD PUSH2 0x642 JUMP JUMPDEST SWAP2 POP POP SWAP3 POP SWAP3 SWAP1 POP JUMP JUMPDEST PUSH2 0x8D9 DUP2 PUSH2 0x621 JUMP JUMPDEST DUP3 MSTORE POP POP JUMP JUMPDEST PUSH2 0x8E8 DUP2 PUSH2 0x657 JUMP JUMPDEST DUP3 MSTORE POP POP JUMP JUMPDEST PUSH2 0x8F7 DUP2 PUSH2 0x68D JUMP JUMPDEST DUP3 MSTORE POP POP JUMP JUMPDEST PUSH2 0x100 DUP3 ADD PUSH1 0x0 DUP3 ADD MLOAD PUSH2 0x914 PUSH1 0x0 DUP6 ADD DUP3 PUSH2 0x8D0 JUMP JUMPDEST POP PUSH1 0x20 DUP3 ADD MLOAD PUSH2 0x927 PUSH1 0x20 DUP6 ADD DUP3 PUSH2 0x8D0 JUMP JUMPDEST POP PUSH1 0x40 DUP3 ADD MLOAD PUSH2 0x93A PUSH1 0x40 DUP6 ADD DUP3 PUSH2 0x8DF JUMP JUMPDEST POP PUSH1 0x60 DUP3 ADD MLOAD PUSH2 0x94D PUSH1 0x60 DUP6 ADD DUP3 PUSH2 0x8DF JUMP JUMPDEST POP PUSH1 0x80 DUP3 ADD MLOAD PUSH2 0x960 PUSH1 0x80 DUP6 ADD DUP3 PUSH2 0x8DF JUMP JUMPDEST POP PUSH1 0xA0 DUP3 ADD MLOAD PUSH2 0x973 PUSH1 0xA0 DUP6 ADD DUP3 PUSH2 0x8D0 JUMP JUMPDEST POP PUSH1 0xC0 DUP3 ADD MLOAD PUSH2 0x986 PUSH1 0xC0 DUP6 ADD DUP3 PUSH2 0x8EE JUMP JUMPDEST POP PUSH1 0xE0 DUP3 ADD MLOAD PUSH2 0x999 PUSH1 0xE0 DUP6 ADD DUP3 PUSH2 0x8EE JUMP JUMPDEST POP POP POP POP JUMP JUMPDEST PUSH1 0x0 PUSH2 0x100 DUP3 ADD SWAP1 POP PUSH2 0x9B5 PUSH1 0x0 DUP4 ADD DUP5 PUSH2 0x8FD JUMP JUMPDEST SWAP3 SWAP2 POP POP JUMP JUMPDEST PUSH1 0x0 PUSH2 0x100 DUP3 ADD SWAP1 POP PUSH2 0x9D1 PUSH1 0x0 DUP4 ADD DUP12 PUSH2 0x7E9 JUMP JUMPDEST PUSH2 0x9DE PUSH1 0x20 DUP4 ADD DUP11 PUSH2 0x7E9 JUMP JUMPDEST PUSH2 0x9EB PUSH1 0x40 DUP4 ADD DUP10 PUSH2 0x77F JUMP JUMPDEST PUSH2 0x9F8 PUSH1 0x60 DUP4 ADD DUP9 PUSH2 0x77F JUMP JUMPDEST PUSH2 0xA05 PUSH1 0x80 DUP4 ADD DUP8 PUSH2 0x77F JUMP JUMPDEST PUSH2 0xA12 PUSH1 0xA0 DUP4 ADD DUP7 PUSH2 0x7E9 JUMP JUMPDEST PUSH2 0xA1F PUSH1 0xC0 DUP4 ADD DUP6 PUSH2 0x866 JUMP JUMPDEST PUSH2 0xA2C PUSH1 0xE0 DUP4 ADD DUP5 PUSH2 0x866 JUMP JUMPDEST SWAP10 SWAP9 POP POP POP POP POP POP POP POP POP JUMP JUMPDEST PUSH1 0x0 DUP3 DUP3 MSTORE PUSH1 0x20 DUP3 ADD SWAP1 POP SWAP3 SWAP2 POP POP JUMP JUMPDEST PUSH32 0x526573756C7420616C7265616479206365727469666965640000000000000000 PUSH1 0x0 DUP3 ADD MSTORE POP JUMP JUMPDEST PUSH1 0x0 PUSH2 0xA80 PUSH1 0x18 DUP4 PUSH2 0xA39 JUMP JUMPDEST SWAP2 POP PUSH2 0xA8B DUP3 PUSH2 0xA4A JUMP JUMPDEST PUSH1 0x20 DUP3 ADD SWAP1 POP SWAP2 SWAP1 POP JUMP JUMPDEST PUSH1 0x0 PUSH1 0x20 DUP3 ADD SWAP1 POP DUP2 DUP2 SUB PUSH1 0x0 DUP4 ADD MSTORE PUSH2 0xAAF DUP2 PUSH2 0xA73 JUMP JUMPDEST SWAP1 POP SWAP2 SWAP1 POP JUMP JUMPDEST PUSH1 0x0 PUSH1 0x60 DUP3 ADD SWAP1 POP PUSH2 0xACB PUSH1 0x0 DUP4 ADD DUP7 PUSH2 0x77F JUMP JUMPDEST PUSH2 0xAD8 PUSH1 0x20 DUP4 ADD DUP6 PUSH2 0x7E9 JUMP JUMPDEST PUSH2 0xAE5 PUSH1 0x40 DUP4 ADD DUP5 PUSH2 0x77F JUMP JUMPDEST SWAP5 SWAP4 POP POP POP POP JUMP JUMPDEST PUSH32 0x524553554C545F43455254494649454400000000000000000000000000000000 PUSH1 0x0 DUP3 ADD MSTORE POP JUMP JUMPDEST PUSH1 0x0 PUSH2 0xB23 PUSH1 0x10 DUP4 PUSH2 0xA39 JUMP JUMPDEST SWAP2 POP PUSH2 0xB2E DUP3 PUSH2 0xAED JUMP JUMPDEST PUSH1 0x20 DUP3 ADD SWAP1 POP SWAP2 SWAP1 POP JUMP JUMPDEST PUSH1 0x0 PUSH1 0x40 DUP3 ADD SWAP1 POP DUP2 DUP2 SUB PUSH1 0x0 DUP4 ADD MSTORE PUSH2 0xB52 DUP2 PUSH2 0xB16 JUMP JUMPDEST SWAP1 POP PUSH2 0xB61 PUSH1 0x20 DUP4 ADD DUP5 PUSH2 0x77F JUMP JUMPDEST SWAP3 SWAP2 POP POP JUMP INVALID LOG2 PUSH5 0x6970667358 0x22 SLT KECCAK256 LOG1 0xBD 0x4A DUP15 0xBF 0x4D ORIGIN DUP3 PUSH0 0xF7 0xA6 0xD9 0xA6 DUP8 0xEA 0x2F 0xC2 PUSH17 0x6AA79E493D8C083D4D6256EC1A4364736F PUSH13 0x63430008140033000000000000 "},"methodIdentifiers":{"certifyResult(bytes32,bytes32,uint256,uint256,bytes32,bool)":"265aaf5b","examStudents(bytes32,uint256)":"3b31e798","getExamStudentCount(bytes32)":"38563620","getResult(bytes32,bytes32)":"a2b53b7c","results(bytes32,bytes32)":"eb847d73","verifyCredential(bytes32,bytes32,bytes32)":"99297ada"}}}}}